S01100007765656B20332042322E7372656380
S113000045C0000053C0000051C000004FC00000B4
S11300104DC000004BC0000049C0000047C00000B4
S113002045C0000097C0000041C000003FC0000070
S11300303DC000003BC0000039C0000037C00000D4
S113004035C0000033C0000031C000002FC00000E4
S11300502DC000002BC0000029C0000027C00000F4
S113006025C0000023C0000021C000001FC0000004
S11300701DC000001BC0000019C0000017C0000014
S113008015C0000013C0000011C0000011241FBEE1
S1130090CFEFD0E1DEBFCDBF21E0A0E0B1E001C0F1
S11300A01D92A230B207E1F775D0CAC0A9CFAB9AAE
S11300B08FEC97E00197F1F700C00000AB988FEC4C
S11300C097E00197F1F700C000000895CF93C82F7F
S11300D085BBAA9AECDFC295C07FC5BBAA9AE7DFAD
S11300E0CF910895CF93DF93EC018881882329F081
S11300F02196ECDF89918111FCCFDF91CF91089596
S1130100982F907F95BBAB9AEFECF7E03197F1F71E
S113011000C0000094E095BBF0E18F9FC001112462
S113012085BBAB9A8FEC97E00197F1F700C0000014
S113013015BA08958FEF84BB82E0E2DF88E2E0DF46
S11301408CE0DEDF86E0DCDF80E8DACF08958068CB
S1130150D7CF08951F920F920FB60F9211248F9349
S11301609F93809100019091010101969093010168
S1130170809300019F918F910F900FBE0F901F905D
S1130180189581E083BD87B7806887BF8FE185BDFF
S113019078940895CF93DF93CDB7DEB72A970FB63F
S11301A0F894DEBF0FBECDBF8F988FEF8ABBE9DF17
S11301B0C1DF80E090E0CBDF4AE0BE016F5F7F4F9C
S11301C0809100019091010108D08CDF8FE19EE4C1
S11301D00197F1F700C00000ECCFBB274A3031F49F
S11301E0992322F4BDE2909581959F4F01C0BB27CE
S11301F0FB015527AA27880F991FAA1FA41710F0DF
S1130200A41B83955051B9F7A05DAA3308F0A95DEA
S1130210A193009779F7B111B1931192CB0100C06A
S1130220DC01FC01672F71917723E1F7329704C059
S11302307C916D9370836291AE17BF07C8F30895E4
S1070240F894FFCF5C
S9030000FC
