S02300004D697263726F636F6E74726F6C6C657273207765656B20322042332E737265632B
S113000045C0000061C000007CC000005CC000006E
S11300105AC0000058C0000056C0000054C0000080
S113002052C0000050C000004EC000004CC0000090
S11300304AC0000048C0000046C0000044C00000A0
S113004042C0000040C000003EC000003CC00000B0
S11300503AC0000038C0000036C0000034C00000C0
S113006032C0000030C000002EC000002CC00000D0
S11300702AC0000028C0000026C0000024C00000E0
S113008022C0000020C000001EC0000011241FBEBA
S1130090CFEFD0E1DEBFCDBF11E0A0E0B1E0E4EAF4
S11300A0F1E000E00BBF02C007900D92A031B10750
S11300B0D9F721E0A0E1B1E001C01D92A231B2075D
S11300C0E1F74DD06DC09CCF1F920F920FB60F92E7
S11300D011248F939F9380911001909111010196A7
S11300E09093110180931001819B04C0109211011F
S11300F0109210019F918F910F900FBE0F901F903F
S113010018951F920F920FB60F9211248F939F93FD
S113011080911001909111010197909311018093A6
S11301201001809B04C010921101109210019F9144
S11301308F910F900FBE0F901F90189518161906E7
S11301406CF420E030E0EFECF7E03197F1F700C019
S113015000002F5F3F4F82179307A9F708958FEF91
S113016087BB11BAEAE6F0E080818F60808389B7AB
S1130170836089BF78948FE388BBCAE780911001BC
S1130180909111018031910530F4FC01E050FF4F52
S1130190808188BB01C0C8BB8AE090E0CFDFEECF8E
S10701A0F894FFCFFD
S11301A43F055B4F656E7E077F6F777C3A5D7A729D
S9030000FC
