S01100007765656B20322042342E737265637F
S113000045C0000058C0000056C0000054C00000A5
S113001052C0000050C000004EC000004CC00000A0
S11300204AC0000048C0000046C0000044C00000B0
S113003042C0000040C000003EC000003CC00000C0
S11300403AC0000038C0000036C0000034C00000D0
S113005032C0000030C000002EC000002CC00000E0
S11300602AC0000028C0000026C0000024C00000F0
S113007022C0000020C000001EC000001CC0000000
S11300801AC0000018C0000016C0000011241FBED2
S1130090CFEFD0E1DEBFCDBF11E0A0E0B1E0E6E4F8
S11300A0F1E000E00BBF02C007900D92A033B1074E
S11300B0D9F713D046C0A4CF181619066CF420E063
S11300C030E0EFECF7E03197F1F700C000002F5F6C
S11300D03F4F82179307A9F70895CF93DF938FEFCC
S11300E087BB8091010190910201892B29F1C0E025
S11300F0D0E0FE01EE0FFF1FEC0FFD1FE050FF4F9D
S1130100808188BB81819281D7DFCE0101968F7077
S11301109078992324F40197806F9F6F0196EC01E6
S1130120FC01EE0FFF1F8E0F9F1FFC01E050FF4FDD
S113013081819281892BE9F681E090E0DF91CF9172
S10901400895F894FFCFBE
S11301460264000164000464000864001064002072
S113015664000264004064000864001064002064C3
S11301660002640001640004640008640040640042
S9030000FC
