S01100007765656B20322042352E737265637E
S113000045C0000058C0000056C0000054C00000A5
S113001052C0000050C000004EC000004CC00000A0
S11300204AC0000048C0000046C0000044C00000B0
S113003042C0000040C000003EC000003CC00000C0
S11300403AC0000038C0000036C0000034C00000D0
S113005032C0000030C000002EC000002CC00000E0
S11300602AC0000028C0000026C0000024C00000F0
S113007022C0000020C000001EC000001CC0000000
S11300801AC0000018C0000016C0000011241FBED2
S1130090CFEFD0E1DEBFCDBF11E0A0E0B1E0E4E9F5
S11300A0F1E000E00BBF02C007900D92AC31B10744
S11300B0D9F755D06DC0A4CFAB9A8FEC97E00197D8
S11300C0F1F700C00000AB988FEC97E00197F1F7CF
S11300D000C000000895CF93C82F85BBAA9AECDF17
S11300E0C295C07FC5BBAA9AE7DFCF910895CF938D
S11300F0DF93EC018881882329F02196ECDF899134
S11301008111FCCFDF91CF910895982F907F95BBFB
S1130110AB9AEFE4F3EC3197F1F700C0000094E000
S113012095BBF0E18F9FC001112485BBAB9A8FE48E
S113013093EC0197F1F700C0000015BA08958FEF12
S113014084BB82E0E2DF88E2E0DF8CE0DEDF86E091
S1130150DCDF80E8DACF08958068D7CF08958FEF89
S113016081BBEDDF80E091E0C2DF81E490E0F4DF69
S11301708CE091E0BCDF82B3805882BB2FE78AE138
S113018096E0215080409040E1F700C00000F3CF9A
S1070190F894FFCF0D
S113019448656C6C6F20776F726C64004275727979
S10F01A420746865206C696768740000B2
S9030000FC
